:020000040000FA
:100000007002001081010000890100008B010000D6
:100010008D0100008F010000910100000000000030
:10002000000000000000000000000000930100003C
:1000300095010000000000009701000099010000F8
:100040009B0100009B0100009B0100009B01000040
:100050009B0100009B0100009B0100009B01000030
:100060009B0100009B0100009B0100009B01000020
:100070009B0100009B0100009B0100009B01000010
:100080009B0100009B0100009B0100009B01000000
:100090009B0100009B0100009B0100009B010000F0
:1000A0009B0100009B0100009B0100009B010000E0
:1000B0009B0100009B0100009B0100009B010000D0
:1000C0009B0100009B0100009B01000000F002F872
:1000D00000F047F80AA090E8000C82448344AAF19B
:1000E0000107DA4501D100F03CF8AFF2090EBAE899
:1000F0000F0013F0010F18BFFB1A43F0010318475C
:10010000681B0000881B0000103A24BF78C878C123
:10011000FAD8520724BF30C830C144BF04680C600D
:10012000704700000023002400250026103A28BF55
:1001300078C1FBD8520728BF30C148BF0B60704759
:10014000662900F0D880002070471FB500F058F8ED
:1001500004000020002101F037FAE0601FBD10B557
:1001600010BD00F025FC1146FFF7EFFF01F086F906
:1001700000F0B0F803B4FFF7F2FF03BC00F0B4F8EE
:100180000948804709480047FEE7FEE7FEE7FEE72B
:10019000FEE7FEE7FEE7FEE7FEE7FEE70448054967
:1001A000034A054B70470000F5110000CD00000028
:1001B0007000001070020010700000100FB40449AD
:1001C00010B503AA029800F009F810BC5DF814FB02
:1001D000040000107047704770470000074B70B56F
:1001E0000D467B4400F05BF80446284600F06AF8B0
:1001F00010B14FF0FF3070BD204670BDDF11000020
:10020000004870472C00001030B5B0F10A024FEAE8
:10021000900E71F100034EEA817EB0EB0E0061EBAF
:1002200091014FEA101E4EEA017E10EB0E0041EBE9
:1002300011114FEA102E4EEA016E10EB0E0041EB49
:1002400011214FEA104E4EEA014E10EB0E0041EB29
:100250001141401841F100014FEAD00040EA4170DD
:100260004FEAD10110EB80054FEA810444EA907413
:1002700044EB01046D1944EB0404521BA3414FF0FD
:10028000000348BF0A3200D530BD401C41F10001D7
:1002900030BD000001694A1C02610878704700B552
:1002A0008FB0CDE901310021059105497944CDE9AF
:1002B00003101146684600F023F80FB000BD00009F
:1002C000E5FFFFFF007B00F08000704700487047AB
:1002D0000C00001010B50446AFF300802046BDE8C6
:1002E0001040FFF747BF000001491820ABBEFEE7F2
:1002F00026000200704700F076B90000FFFFFFFF04
:100300002DE9F05F894604464FF0000ADFF824B17A
:10031000FB44C0F820A02046E168884700287DD033
:10032000252806D0D4E901219047206A401C20628C
:10033000F1E700255F462046E16888472028064609
:1003400007DB312E05D2B81910F8200C08B105438F
:10035000F1E7A80701D525F00405C4F81CA0002783
:10036000C4F818A02A2E09D0304601F013F838B38B
:1003700004EB8708303EC8F8186019E059F8041BF0
:10038000204604EB87029161E1688847012F064609
:1003900018D1E069002820DA25F020051DE0D8F802
:1003A000180000EB800006EB40003038C8F8180059
:1003B0002046E1688847064600F0ECFF0028EED1B1
:1003C000012F0AD02E2E08D12046E16888477F1CD5
:1003D0000646022F45F02005C4DBA069002803DA99
:1003E000404245F00105A061E80701D025F0100565
:1003F000A6B1A6F14100192802D8203645F40065BF
:100400004A463146204625604D46FFF799FE60B1C9
:10041000012807D0ED1D25F0070000E007E000F1FE
:10042000080978E705F1040975E730467AE7206A9C
:10043000BDE8F09FAC18000070472DE9FF4F0C4657
:100440001E464FF0FF378BB0D2E90001DDF8608027
:100450000A908A46C1F30A5505B93D46002108466F
:100460004FF00000BAF1000F00F4400005DA00EB95
:1004700080004FF4400101EA50004FEA9059B9F171
:10048000010F00DDB9460A9850EA4A000ED044F642
:100490001050A5F2FF3545432F14B8F1000F1ED0C0
:1004A0007542291E1EDDC9F100021CE0B8F1010FE2
:1004B0004FF0000001D0302103E0F24305E0215469
:1004C000401CB042FBDB30460022002121540B9936
:1004D000C1F80880C1E900200FB0BDE8F08FBD1B56
:1004E0006D1CDEE74A4600DA694206A800F0F2F920
:1004F00006AB93E8070003AB83E8070050460A9970
:1005000000F0BCFA8DE80700A0F500501F380090FD
:100510000398002D09DD42F21F014A46084403A951
:100520000390684600F01BFD08E0A0F500504A4625
:100530001F3803A90390684600F025FD8DE80700E9
:100540000004000C03D04FF0FF30410800E01046DB
:10055000B8F1000F03D00022009215461EE0751E70
:1005600005D4FFF751FE303262556D1EF9D5B34602
:100570000122084302D000227F1C04E020783028AA
:1005800001D100227F1E002A099786D01DE0112D7F
:1005900007DAFFF739FE303262556D1C50EA01026E
:1005A000F5D1084302D00098C8B10EE00021681EC2
:1005B00005E0235C625C63542254401E491C814266
:1005C000F7DBAB46A81B401E0990002004F80B0087
:1005D0000B98099AC0F80880C0E9002B7CE7112627
:1005E0004FF0000859E72DE9F04F88460446D21D28
:1005F00022F0070191B0D1E90001CDE90A0100F034
:10060000B5FE02460B98C00F01D02D2007E02068F0
:10061000810701D52B2002E0202101EAC000032A36
:10062000099001D0072A05DB03464146204600F029
:1006300011F90BE12078800601D5E06900E0062081
:10064000B8F1650F814606D0B8F1660F18D0B8F141
:10065000670F70D131E00020B9F1110F009001DB7C
:10066000112301E009F101030AAA01A90CA8FFF76F
:10067000E4FEDDE90C70002609F10105834647E040
:1006800001204B4600904FF000470AAA01A90CA890
:10069000FFF7D3FEDDE90DB00C995D46002610B9D9
:1006A00009F101000D18B9EB050003D4C0F1FF36C4
:1006B00009F10105A5EB09002BE0B9F1010F01DA01
:1006C0004FF001090020B9F1110F0090484601DDFB
:1006D000112300E003460AAA01A90CA8FFF7ADFE0A
:1006E000DDE90C704D4600268346207800070AD4C9
:1006F000AB4500DA5D4601A8012D04DD411911F872
:10070000011C302907D04F4502DA17F1040F04DA33
:10071000012082460FE06D1EEEE7002F02DCED1B8C
:100720003E4403E0781CA84200DD7D1CB81B00F1AC
:10073000010A4FF000472078000703D4AA4501DBE7
:100740004FF0FF3A0021B7F1004F0DF143088DF84B
:10075000431024D002202B23002F01DA7F422D23C7
:100760000A21021EA0F1010000DC5FB197FBF1FC41
:1007700097FBF1F201FB1C7C17460CF1300C08F8DA
:1007800001CDEEE7A8F1010003702188090501D52C
:10079000452100E06521A0F1010800F8011C09983D
:1007A0000FA9A1EB0807FF1D00B10120411901EBC2
:1007B000EA70A1693844081A401EA0612078C0067A
:1007C00002D42046AFF30080099828B1D4E9012172
:1007D0009047206A401C20622078C00622D520461F
:1007E000AFF300801EE0002E04DBB34502DD01A85C
:1007F000805D00E03020D4E901219047206A401C50
:100800002062761CAAF101005FEA000A0AD1FFF714
:10081000F7FCC0680168405CD4E901219047206A78
:10082000401C2062281EA5F10105DCDC07E0D4E9AC
:10083000012118F8010B9047206A401C2062381EE5
:10084000A7F10107F3DC2046AFF30080032011B0CD
:1008500043E600002DE9F0411F46044603260168E7
:10086000072A01F4006004DB08B116A505E016A50F
:1008700003E008B115A500E015A521F010002060E7
:10088000A069C01EA0610FB1401EA0612046AFF359
:1008900000804FB1D4E9012138469047206A401CBE
:1008A0002062C01C206206E0206AFAE7D4E9012138
:1008B00015F8010B9047761EF8D22046AFF3008062
:1008C000BDE8F0814E414E006E616E00494E46001B
:1008D000696E66002DE9F047814616468AB03348B6
:1008E00078440DC88DE80D0030487844801C03AC76
:1008F0000DC884E80D0041F69B300844372190FB79
:10090000F1F290FBF1F5A5F1800501FB12041B3C0F
:1009100002D56442012000E00020DFF890A080466C
:100920000027FA44AAF1BE0A0DE0E00709D03246DA
:10093000684607EB47010AEB810100F024FB8DE8D4
:10094000070064107F1C002CEFD1184F7F44AC3F90
:1009500018E0E80714D007EB04100DF1180A90E82E
:100960000E008AE80E00C068F04201D19819089084
:10097000324606A903A800F006FB03AB83E8070094
:100980006D10641C002DE4D132466946B8F1000FA9
:1009900003A802D000F0E3FA01E000F0F4FAC9E99C
:1009A0000001C9F808200AB0BDE8F0876C13000008
:1009B0007546FFF78BFCAE4605006946534620F0AE
:1009C0000700854618B020B5FFF7E8FBBDE82040DA
:1009D0004FF000064FF000074FF000084FF0000BFB
:1009E00021F00701AC46ACE8C009ACE8C009ACE8AE
:1009F000C009ACE8C0098D46704700004FF0013CCB
:100A000050F8042B51F8043B9A4221D1A2EB0C037D
:100A1000934313EACC1317D150F8042B51F8043B3D
:100A20009A4215D1A2EB0C03934313EACC130BD1DA
:100A300050F8042B51F8043B9A4209D1A2EB0C0365
:100A4000934313EACC13DBD04FF00000704700BF94
:100A5000D01A01BAB1FA81F101F0180122FA01F0BD
:100A6000CB40C1F12001DBB2C0B2C01A2CFA01F3B5
:100A7000D11A914311EAC311E6D170475FEA400CE5
:100A800008BF91F0000F4FEA8C234FEAC12243EADE
:100A900051514FEA1C5018BF00F5F0404FEA3000AA
:100AA00018BF41F000415FEA6C5C00F02980BCF1A6
:100AB000FF3F08BF40F080407047130C06BF120490
:100AC0004FF0100C4FF0000C130E04BF12020CF18B
:100AD000080C130F04BF12010CF1040C930F04BF98
:100AE00092000CF1020CD30F04BF52000CF1010C68
:100AF00011464FF00002A0F11F00A0EB0C00704760
:100B000011F0004F08BF704731F000413FF4D5AFFE
:100B10000B0C06BF09044FF0100C4FF0000C0B0E2D
:100B200004BF09020CF1080C0B0F04BF09010CF102
:100B3000040C8B0F04BF89000CF1020CCB0F04BF17
:100B400049000CF1010CCCF12003A0EB0C0022FABF
:100B500003F302FA0CF241EA030100F101007047CD
:100B600020F07F4C80EA030023F07F47ACEB0703C3
:100B700003F57C5300F0004003F1FF032DE98049A9
:100B80004FEA154B09B44FEA144325EA0B4E24EA09
:100B900003480FF2042606EB132749083E785FEA64
:100BA000320203FB0667C7F5000707FB06F64FEAAC
:100BB00054374FEAD64606F1020607FB066CCCF125
:100BC000005C4FEA1C472CEA074C07FB06F40CFBC1
:100BD00006F504EB15464FEA961634BF00204FF099
:100BE00000404FEAD13706FB07FC4FEA1C4C0CFBD8
:100BF0000BF7D21B03FB0CF761EB07010CFB0EF7A5
:100C0000B0EB074072EB17420CFB08F734BFA2EBC6
:100C10000742B2EB074261EB17414FEA0C444FEA3F
:100C2000910706FB07FC4FEA1C4C0CFB0BF7B0EBE3
:100C3000C74072EB573203FB0CF734BFA2EBC7423D
:100C4000B2EBC74261EB57310CFB0EF7B0EBC700BC
:100C500072EB57720CFB08F734BFA2EBC702B2EB82
:100C6000C70261EB5771039F4FEA816141EA92111C
:100C700004EBCC044FEAD1374FEA826206FB07FC53
:100C800042EA90124FEA80604FEA1C4C0CFB0BF7D3
:100C9000D21B03FB0CF761EB07010CFB0EF7B0EB6B
:100CA000074072EB17420CFB08F734BFA2EB074278
:100CB000B2EB074261EB17414FEA8C554FEA9107BF
:100CC00004EB9C2406FB07FC4FEA1C4C0CFB0BF7C7
:100CD000B0EBC74072EB573203FB0CF734BFA2EB0B
:100CE000C742B2EBC74261EB57310CFB0EF7B0EBDA
:100CF000C70072EB57720CFB08F734BFA2EBC702B8
:100D0000B2EBC70261EB577115EB4C254FEA8161DD
:100D100041EA92114FEA82624FEAD13742EA9012D9
:100D200006FB07FC44F100044FEA80604FEA1C4CCC
:100D30000CFB0BF7D21B03FB0CF761EB07010CFB61
:100D40000EF7B0EB074072EB17420CFB08F734BF0D
:100D5000A2EB0742B2EB074261EB174115EB1C1502
:100D60004FEA813141EA92414FEA823242EA9042AF
:100D70004FEA80304FEA0C7644F1000448EA03431E
:100D80004EEA0B484FF0000EB2EB080C71EB030774
:100D900024BF624639464EEB0E0E4FF0000B001892
:100DA000524149414BEB0B0BB2EB080C71EB0307C3
:100DB0007BF1000B24BF624639464EEB0E0E4FF01E
:100DC000000B0018524149414BEB0B0BB2EB080CE6
:100DD00071EB03077BF1000B24BF624639464EEBF3
:100DE0000E0E51EA020718BF46F0010616EB0E760A
:100DF00055F1000254F1000103D5BDE88901BDE8B9
:100E00000088BDE88901BDE80048B619524141EBB0
:100E10000101A3F10103704780807F7E7D7C7B7A96
:100E20007978777676757473727171706F6E6E6D96
:100E30006C6C6B6A6A69686867666665646463633C
:100E400062616160605F5F5E5E5D5D5C5C5B5B5AC2
:100E50005A5959585857575656555555545453532F
:100E600052525251515050504F4F4F4E4E4D4D4D8A
:100E70004C4C4C4B4B4B4A4A4A49494948484847D5
:100E80004747474646464545454444444443434313
:100E90004342424242414141002B26D4770021D0B7
:100EA0001CB54FEA370703B44FF010004FF01001A4
:100EB0004FF000000FBCBDE810400BF1010BBBF17F
:100EC000010F08BF5FEA170722BF12F1010211F1FB
:100ED00001014FF0004143F1000300F0004043EAFC
:100EE00000007047F9D35708DAE746EA064613F1DF
:100EF000400F4FEA16461FDD13F1200FDFBF1643E8
:100F00000A46002120335B42C8D0C3F1200746EADD
:100F1000064602FA07F74FEA164646EA0706C3F105
:100F2000200722FA03F201FA07F721FA03F14FF042
:100F3000000342EA0702B1E746EA020646EA06462D
:100F40004FEA164646EA0106BCBF46EA0646360C9C
:100F50004FF000034FF000024FF000019EE72DE933
:100F6000C048934630B491E8380007C831EA400CD5
:100F700048BF34EA430C03D5FFF7F2FDFFF78CFFBF
:100F8000F0BCBDE800882DE9C048934630B491E834
:100F9000380007C810F0804F08BF13F0804F03D10E
:100FA00000F005F8FFF778FFF0BCBDE8008820F0FE
:100FB0007F4780EA030023F07F4C07EB0C03A3F587
:100FC0007C5300F00040A3F1FE0392F0000F00F00C
:100FD000B38095F0000F00F077802DE901494FEACA
:100FE00011404FEA144621EA004800FB06FC24EABF
:100FF000064708FB06F607FB08F800FB07F718EBA7
:1010000006484CEB164C4FEA124B18EB07484FEAD8
:1010100015464CEB174022EA0B4E0BFB06FC25EA6B
:1010200006470EFB06F607FB0EFE0BFB07F71EEB53
:10103000064E4CEB164C4FF000061EEB074E4CEBE9
:10104000174B18EB0B0840F1000018EB0E0B58EB98
:10105000000840F100008F1A4FF000013CBFC94367
:10106000661B14BFB5EB040C00213CBFC943F61B43
:101070004FEA17444EEA8E0E27EA04454FEA1C4712
:1010800004FB07622CEA074C05FB07F70CFB05F68F
:1010900004FB0CFC16EB074642EB174216EB0C4622
:1010A00042EB1C421BEB060658EB0202414146EAAA
:1010B0009E0601D5BDE80189B619524141EB0101F7
:1010C000A3F10103BDE801894FEA14454FEA114736
:1010D00024EA054621EA074C05FB07F406FB07F75F
:1010E0000CFB06F105FB0CFC11EB074144EB17442C
:1010F0004FEA124711EB0C4144EB1C4422EA074C27
:1011000005FB07F206FB07F70CFB06F605FB0CFCDC
:1011100016EB074642EB174216EB0C4642EB1C451A
:101120006A1854F1000148BF7047B619524141EBAB
:101130000101A3F10103704795F0000F37D04FEA8A
:1011400011424FEA144721EA024624EA074C02FB07
:1011500007F106FB07F70CFB06F402FB0CFC14EB93
:10116000074441EB17414FEA154714EB0C4441EBA0
:101170001C4125EA074C02FB07F506FB07F70CFBB1
:1011800006F602FB0CFC16EB074645EB174516EB83
:101190000C4645EB1C42121951F1000148BF704743
:1011A000B619524141EB0101A3F1010370474FEA27
:1011B00014454FEA114724EA054621EA074C05FB8E
:1011C00007F106FB07F70CFB06F24FF0000605FBE4
:1011D0000CFC12EB074241EB174112EB0C4251EBB6
:1011E0001C4148BF7047921841EB0101A3F1010374
:1011F0007047000020204B4908604B48D0F8A00100
:1012000000F0200030B100BF4648006800F0400008
:101210000028F9D0032043499C3908600020424946
:10122000C1F8A8013F490C31086001203D499439BB
:1012300008603E483C4984310860AA203A498C3114
:101240000860552008600120374980310860AA20D5
:1012500035498C31086055203349C1F88C0000BFF6
:1012600031488830006800F080600028F8D0032002
:101270002D4980310860AA202B49C1F88C005520E7
:1012800029498C31086000BF27488830006800F089
:101290004070B0F1407FF7D123202349A43108608A
:1012A000AA202149C1F8AC0055201F49AC31086083
:1012B00001201D49A0310860AA201B49AC310860FB
:1012C00055201949C1F8AC0000BF1748A830006884
:1012D00000F480600028F8D003201349A031086092
:1012E000AA201149C1F8AC0055200F49AC31086063
:1012F00000BF0D48A830006800F44070B0F5407F92
:10130000F7D10B480849C431086000200649C1F8EC
:10131000C8010846006820F4704040F4804008602E
:1013200070470000A0C10F4000C00F4063000500DF
:10133000DE87280400BF0C49097D01F02001002947
:10134000F9D00A280DD10D21074A117000BF0649B6
:10135000097D01F020010029F9D00A21024A11700B
:1013600001E001490870704700C00040490050EAA0
:10137000C12018BF04204A0D18BF40F0010040F200
:10138000FF72B2EB515F08BF40F00200012808BFB6
:101390000520704730380A2801D20120704700200C
:1013A000704702214FF0402251600121516000BF7F
:1013B0004FF0402189688142FAD300214FF040224A
:1013C0005160704710B503460C46D8B2FFF7B2FF24
:1013D000184610BD0F48006840F480500E49C1F80F
:1013E000A8010E48006940F001000C490861002086
:1013F0000B49C864C860042088610220C861486144
:10140000032008654815C864022048600920486028
:1014100070470000A8C10F4000C00F4000C002404C
:101420000080014000204FF04021086746F2A710DD
:10143000C8600220486070470E48006840F05000C5
:101440000C49086083200C4908730C2008700020A8
:1014500008710846007A40F007000872F220064939
:10146000283108700448007B20F08000024908738E
:101470007047000000C0024000C00040FFF7DCFFE2
:10148000FFF7D0FF3148006840F480002F49C4398D
:10149000C1F8C4000846D0F8AC0140F48050C1F84F
:1014A000AC012B48006840F44070294908600120D5
:1014B000284908670020C860886202204860FFF75A
:1014C00089FF002424A0FEF779FE3EE00120214997
:1014D00048604FF47A70FFF764FF00201D494860B0
:1014E000084680682A49086002201A49486028484E
:1014F000006800F015FA05460022264B00F0B8F807
:10150000074600F077F80446204600F0E3FA054667
:101510000022204B00F0A8FA0ED8204600F0DAFA9C
:10152000054600221B4B00F0A3F807463A460B463F
:1015300019A0FEF743FE08E0204600F0CBFA05466E
:101540002A460B461AA0FEF739FEBFE7C4C00F407B
:1015500000C00240000009404F43467265616B7352
:101560002E636F6D202D204C504331373638782054
:101570004672657175656E637920436F756E74652B
:1015800072204578616D706C6520313A0A00000068
:101590000000001000408F404672657175656E63F3
:1015A00079203D2025302E3466204D487A0A0000EF
:1015B0004672657175656E6379203D2025302E3247
:1015C00066204B487A0A000010B500290AD0087836
:1015D000002807D005487844FFF710FA002801D00A
:1015E000002010BD0248784410BD0000B206000083
:1015F000AA06000021F00042A2F16052B2F5801F5D
:1016000001F0004328BFD2F17F6C0BD95FEA001CC8
:1016100043EAC20242EB507018BF704728BF20F067
:1016200001007047B2F5801FBCBF184670474FEAF3
:10163000410C1CF5001F02D2084600F0BCBA70B580
:1016400000F0BEF900000089FFF7F6BF4FF0004040
:10165000A0F580007047491058BFC1F140415B10B0
:1016600058BFC3F140438B42EFF300807047000046
:101670002DE9C04130B4DFF8A0C23CEA111418BF14
:101680003CEA131400F0EC8081EA03051CEA111413
:1016900044EAD57418BF1CEA131500F0C780A4EB08
:1016A00005044FF0004545EAC12145EAC32341EA5C
:1016B000505143EA525304F17F74994204F50034C7
:1016C0004FEAC0204FEAC22208BF904200F09C803F
:1016D0004FEA13650FF24016765D4FEA134506FB9D
:1016E00005F7C7F1807706FB07F74FEAD737A7FB67
:1016F00003687642C8F58038A7FB06CE38BFA8F14C
:10170000010807FB08E64FF0000EA6FB028CE6FB83
:1017100003CEDCF1000CCEF1004E38BFAEF1010E6D
:10172000A6FB0C584FF000074FF00005E6FB0E87B4
:10173000A1FB08C6A0FB07CE16EB0E0645F100057F
:10174000E1FB076515F1E04E7EBFA4F580345FEA4A
:1017500046066D4116F1800745F100054FEA17274F
:101760004FEA066647EA0567A6F1DE46B6F1805FF6
:101770004FEA15251FD9384624F0010C05EBC4713A
:10178000BCF1FE6F01EB0C1102D8F0BCBDE800818A
:1017900024425CBF01F5801E9EEAC47F02D4F0BCE7
:1017A000BDE80081244238D4F0BCA1F1C041BDE8BD
:1017B000004100F053B94FEAD22242EA43524FEAC5
:1017C000D323A7FB02864FEAD02040EA415007FB13
:1017D00003661EEA0E0F4FEAD12105FB026658BFD1
:1017E000A6EB0056B6EB00564FEA520E4EEAC37E09
:1017F00018EB0E0E56EB530EBDD518EB02085E41EA
:101800007F1C55F10005B6E74FF480154FF0000737
:101810004FF000064FF00008ADE7F0BC4FF00000BD
:1018200001F1C04101F00041BDE8008111EA0C1F47
:101830000CEA131500D00CE013EA0C1F00F0258011
:101840004FF00000F0BC81EA030101F00041BDE867
:101850000081F0BCBDE8004181EA030100F0FEB860
:10186000F0BCBDE8004170B500F0AAF8097EFC3E6E
:1018700000F007B881EA03014FF0000001F00041D9
:10188000704781EA030100F0E9B8F0BCBDE800410F
:101890004FF0000021497047FFFDFBF9F7F5F4F226
:1018A000F0EEEDEBE9E8E6E4E3E1E0DEDDDBDAD8FB
:1018B000D7D5D4D3D1D0CFCDCCCBCAC8C7C6C5C459
:1018C000C2C1C0BFBEBDBCBBBAB9B8B7B6B5B4B370
:1018D000B2B1B0AFAEADACABAAA9A8A8A7A6A5A45B
:1018E000A3A3A2A1A09F9F9E9D9C9C9B9A9999981F
:1018F0009797969595949393929191908F8F8E8EC2
:101900008D8C8C8B8B8A898988888787868585844E
:1019100084838382828181800000FF070000F87F3A
:10192000B0FA80F310FA03F10AD0C3F11D0303F5F6
:1019300080634FEA41504FEA035202EBD1217047D6
:101940004FF000007047000051EA030C17D41CF55B
:10195000801F58BFBCF5801F00F10680994218BF58
:10196000704708BF9042704707D711F5801F58BFD6
:1019700013F5801F19D499427047894270471CF5AE
:10198000801F08D5BCF5801FF7D58B4218BF704764
:1019900008BF824270474FF4001C1CEB410F38BF58
:1019A0001CEB430F01D28B42704770B500F008F872
:1019B000922449004FF000514FF08053FFF74BBE87
:1019C0000EF1020E2EF0030E5EF8046B364205D4C3
:1019D000012A43EB030515F5001F12D8012841EB3E
:1019E000010C1CF5001F0CD80ED14FEAD17C15F567
:1019F000001F0CEB4C0C0CF1020C08BF4CEBD37C21
:101A000004E04FF0080C01E04FEAD37C0CEB4C05EE
:101A100026FA05F606F00706B6F1040C06D20EEB20
:101A2000860CBDE870404CF0010C6047DFE80CF01C
:101A3000090B02024FF000414FF00000A1F5002118
:101A400070BD19461046012851EB010418BFD4F5AA
:101A5000001484BF002001F0004170BD0808A0F50B
:101A600000114FEA3101704753EA010C17D41CF5FD
:101A7000801F58BFBCF5801F00F106808B4218BF45
:101A8000704708BF8242704707D713F5801F58BFC1
:101A900011F5801F19D48B4270479B4270471CF58B
:101AA000801F08D5BCF5801FF7D5994218BF704735
:101AB00008BF904270474FF4001C1CEB430F38BF27
:101AC0001CEB410F01D2994270470FB40CBC03BC10
:101AD000FFF76BBF43004FEAD30C4FEA3C0C434087
:101AE0001FBF40070CF1605113F0FE4F70471CF010
:101AF000006F03D100200CF0004170470CF0004350
:101B000043EA507010B540EACC0000F00EF800BF78
:101B1000000000924FEA0001FFF7A0BF4FF0004124
:101B20004FF00000A1F5002170470EF1020E2EF0DB
:101B3000030E5EF8044B244204D44FEA4102B2F192
:101B40007F4F11D84FEA4003B3F17F4F0CD80ED12D
:101B50004FEAD07CB2F17F4F0CEB4C0C0CF1020C35
:101B600008BF4CEBD17C04E04FF0080C01E04FEAD9
:101B7000D17C0CEB4C0324FA03F404F00704B4F119
:101B8000040C06D20EEB840CBDE810404CF0010CA6
:101B90006047DFE80CF0070802024FF00040A0F5B4
:101BA000800010BD0846420018BFD2F1807288BF85
:101BB00000F0004010BDFF2141EAD050C005704741
:101BC0000400000800000000000000020001000006
:101BD0001000000002400000000000A00000000013
:101BE00005400000000000C8000000000C4000009C
:101BF0000000409C00000000194000000020BCBE16
:101C00000000000034400000BFC91B8E000000042B
:101C1000B5400000504BCFD06607E2CF0100000076
:101C20006C4100003E8251AADFEEA73401000000A3
:101C3000D9420000DCB5A0E23A301F97FFFFFFFF5A
:101C4000B4450000FD25A0C8E9A3C14FFFFFFFFF79
:101C5000FF3F00000000008000000000FF3F000088
:101C60000000008000000000A41C00000000001024
:101C70000C00000008010000B01C00000C00001067
:101C800064020000240100001C000000430000006A
:101C9000F8FFFFFF0C0000000E0000000F00000026
:101CA0002E00000000000000000000000000000006
:04000005000000CD2A
:00000001FF
