:020000040000FA
:100000006802001071010000790100007B0100000E
:100010007D0100007F010000810100000000000060
:10002000000000000000000000000000830100004C
:100030008501000000000000870100008901000028
:100040008B0100008B0100008B0100008B01000080
:100050008B0100008B0100008B0100008B01000070
:100060008B0100008B0100008B0100008B01000060
:100070008B0100008B0100008B0100008B01000050
:100080008B0100008B0100008B0100008B01000040
:100090008B0100008B0100008B0100008B01000030
:1000A0008B0100008B0100008B0100008B01000020
:1000B0008B0100008B0100008B0100008B01000010
:1000C0008B0100008B0100008B01000000F002F8A2
:1000D00000F03FF80AA090E8000C82448344AAF1A3
:1000E0000107DA4501D100F034F8AFF2090EBAE8A1
:1000F0000F0013F0010F18BFFB1A43F0010318475C
:100100001C0600003C060000103A24BF78C878C1E5
:10011000FAD8520724BF30C830C144BF04680C600D
:10012000704700000023002400250026103A28BF55
:1001300078C1FBD8520728BF30C148BF0B60704759
:10014000642900F07380002070471FB51FBD10B5F3
:1001500010BD00F047F91146FFF7F7FF00F078FAFD
:1001600000F0BAF803B4FFF7F2FF03BC00F060F947
:100170000948804709480047FEE7FEE7FEE7FEE73B
:10018000FEE7FEE7FEE7FEE7FEE7FEE70448054977
:10019000034A054B704700003D040000CD000000FD
:1001A0006800001068020010680000100FB40449D5
:1001B00010B503AA029800F079F810BC5DF814FBA2
:1001C000000000102DE9F0410E4604460020206298
:1001D0002046E168884730B3252805D0D4E90121BD
:1001E0009047206A401CF2E7E168204600278847D4
:1001F000050018D0A5F14100192802D820354FF488
:1002000000673246294620462760FFF799FF40B134
:10021000012804D0F61D26F007060836D8E7361D5B
:10022000D6E72846DAE7206ABDE8F0812DE9F041FB
:100230000646002410687529314616A510D0AFF384
:100240000080002802DA404213A507E031688A07DF
:1002500001D512A502E0490704D511A5012401E04A
:10026000AFF3008000210A2206F1240709E0B0FB69
:10027000F2FCB0FBF2F302FB1C003030785418465D
:10028000491C0028F3D123462A463046BDE8F041F8
:1002900000F036B8000000002D0000002B00000028
:1002A000200000007047704770470000074B70B592
:1002B0000D467B4400F083F80446284600F008F819
:1002C00010B14FF0FF3070BD204670BD3303000009
:1002D000007B00F08000704710B50446AFF300804B
:1002E0002046BDE81040FFF73DBF000000487047C2
:1002F000080000107047000000000000FFFFFFFF33
:100300002DE9F0470D4699469246044600F124082F
:100310000168880604D5E06921F01001216000E041
:100320000120A84201DD471B00E00027A1697A19DE
:1003300002EB0900081AA0612078C00602D420460A
:10034000AFF30080002608E0D4E901211AF8060086
:100350009047206A401C761C20624E45F4DB2078D2
:10036000C0060AD52046AFF3008006E0D4E901219B
:1003700030209047206A401C2062381EA7F10107F8
:10038000F4DC07E0D4E9012118F805009047206A61
:10039000401C2062281EA5F10105F3DC2046AFF3C6
:1003A00000802078000602D50220BDE8F0870120F9
:1003B000FBE7000001694A1C02610878704700B53C
:1003C0008FB0CDE901310021059105497944CDE98E
:1003D000031011466846FFF7F5FE0FB000BD0000A0
:1003E000E5FFFFFF7546FFF781FFAE460500694652
:1003F000534620F00700854618B020B5FFF7C6FE2B
:10040000BDE820404FF000064FF000074FF0000815
:100410004FF0000B21F00701AC46ACE8C009ACE896
:10042000C009ACE8C009ACE8C0098D4670470000BF
:1004300001491820ABBEFEE72600020020204B49F0
:1004400008604B48D0F8A00100F0200030B100BF98
:100450004648006800F040000028F9D003204349D6
:100460009C39086000204249C1F8A8013F490C317D
:10047000086001203D49943908603E483C49843178
:100480000860AA203A498C31086055200860012094
:10049000374980310860AA2035498C3108605520E1
:1004A0003349C1F88C0000BF31488830006800F043
:1004B00080600028F8D003202D4980310860AA20F0
:1004C0002B49C1F88C00552029498C31086000BFA8
:1004D00027488830006800F04070B0F1407FF7D1C5
:1004E00023202349A4310860AA202149C1F8AC0087
:1004F00055201F49AC31086001201D49A03108601A
:10050000AA201B49AC31086055201949C1F8AC003C
:1005100000BF1748A830006800F480600028F8D0B9
:1005200003201349A0310860AA201149C1F8AC008A
:1005300055200F49AC31086000BF0D48A830006855
:1005400000F44070B0F5407FF7D10B480849C43142
:10055000086000200649C1F8C8010846006820F478
:10056000704040F48040086070470000A0C10F4018
:1005700000C00F4063000500DE87280400BF0C495F
:10058000097D01F020010029F9D00A280DD10D21A3
:10059000074A117000BF0649097D01F020010029BA
:1005A000F9D00A21024A117001E001490870704730
:1005B00000C0004000B503464FF47A7103FB01F020
:1005C00000F001F800BD02214FF0402251600121EE
:1005D000516000BF4FF0402189688142FAD3002169
:1005E0004FF040225160704710B503460C46D8B218
:1005F000FFF7C4FF184610BD00204FF040210867E8
:100600001820C86002204860704700000E4800684B
:1006100040F050000C49086083200C4908730C20FE
:100620000870002008710846007A40F00700087240
:10063000F2200649283108700448007B20F0800031
:10064000024908737047000000C0024000C000402B
:10065000FFF7DCFFFFF7D0FF1748006840F4805039
:100660001549C439C1F8C4001448406840F48040BA
:100670001249486012481349086000241248FFF7E5
:1006800095FD18E00F48006840F080700D49086043
:1006900000BF0C48006900F000400028F9D009486C
:1006A0000069C0F30B14214608A0FFF77FFD4FF44B
:1006B000FA70FFF77FFFE5E7C4C00F4000C00240BB
:1006C0000101200000400340D80600004144302EC4
:1006D00030203D2025640A004F43467265616B73EC
:1006E0002E636F6D204C50433137367820495220AD
:1006F00053656E736F7220496E74657266616369CB
:100700006E67205475746F7269616C202D20457876
:10071000616D706C6520312E0A0000003C070000FE
:10072000000000100800000008010000440700005D
:10073000080000106002000024010000000000001A
:0407400000000000B5
:04000005000000CD2A
:00000001FF
