:020000040000FA
:10000000000200107901000081010000830100005E
:100010008501000087010000890100000000000048
:100020000000000000000000000000008B01000044
:100030008D010000000000008F0100009101000010
:100040009301000093010000930100009301000060
:100050009301000093010000930100009301000050
:100060009301000093010000930100009301000040
:100070009301000093010000930100009301000030
:100080009301000093010000930100009301000020
:100090009301000093010000930100009301000010
:1000A0009301000093010000930100009301000000
:1000B00093010000930100009301000093010000F0
:1000C00093010000930100009301000000F002F88A
:1000D00000F042F80AA090E8000C82448344AAF1A0
:1000E0000107DA4501D100F037F8AFF2090EBAE89E
:1000F0000F0013F0010F18BFFB1A43F0010318475C
:10010000A4080000D4080000103A24BF78C878C1C1
:10011000FAD8520724BF30C830C144BF04680C600D
:10012000704700000023002400250026103A28BF55
:1001300078C1FBD8520728BF30C148BF0B60704759
:10014000642900F0DD80732900F081810020704770
:100150001FB51FBD10B510BD00F0A8F91146FFF77F
:10016000F7FF00F03FFB00F0BCF803B4FFF7F2FF2D
:1001700003BC00F0C1F90000094880470948004766
:10018000FEE7FEE7FEE7FEE7FEE7FEE7FEE7FEE747
:10019000FEE7FEE704480549034A054B70470000A7
:1001A00009050000CD00000068C007200002001013
:1001B000000000100FB4044910B503AA029800F023
:1001C0004BF910BC5DF814FB00C007202DE9F0418D
:1001D0000E460446002020622046E168884730B37E
:1001E000252805D0D4E901219047206A401CF2E778
:1001F000E168204600278847050018D0A5F1410096
:10020000192802D820354FF4006732462946204687
:100210002760FFF795FF40B1012804D0F61D26F0B6
:1002200007060836D8E7361DD6E72846DAE7206AFB
:10023000BDE8F08170B50C460546012A05D0287846
:10024000800600D5EA69002302E0012305E05B1C7B
:10025000934202D2E05C0028F9D1A869E618C01ADE
:10026000A861286A184428622846AFF3008004E099
:10027000D5E9012114F8010B9047B442F8D3284680
:10028000AFF3008070BD4FF0000200B513469446F6
:100290009646203922BFA0E80C50A0E80C50B1F1DE
:1002A0002001BFF4F7AF090728BFA0E80C5048BFF2
:1002B0000CC05DF804EB890028BF40F8042B08BF90
:1002C000704748BF20F8022B11F0804F18BF00F88C
:1002D000012B7047704770477047007B00F080002B
:1002E000704710B50446AFF300802046BDE81040CB
:1002F000FFF73BBF0048704708C00720FFFFFFFF24
:100300002DE9F0410646002410687529314616A5EE
:1003100010D0AFF30080002802DA404213A507E0B6
:1003200031688A0701D512A502E0490704D511A555
:10033000012401E0AFF3008000210A2206F1240726
:1003400009E0B0FBF2FCB0FBF2F302FB1C00303022
:1003500078541846491C0028F3D123462A463046D3
:10036000BDE8F04100F008B8000000002D000000DA
:100370002B000000200000002DE9F0470D469946B3
:100380009246044600F124080168880604D5E06915
:1003900021F01001216000E00120A84201DD471B8F
:1003A00000E00027A1697A1902EB0900081AA06190
:1003B0002078C00602D42046AFF30080002608E073
:1003C000D4E901211AF806009047206A401C761CE7
:1003D00020624E45F4DB2078C0060AD52046AFF3F4
:1003E000008006E0D4E9012130209047206A401CBB
:1003F0002062381EA7F10107F4DC07E0D4E90121EF
:1004000018F805009047206A401C2062281EA5F1BC
:100410000105F3DC2046AFF300802078000602D50A
:100420000220BDE8F0870120FBE710B5436913B156
:10043000AFF3008001E0FFF7FDFE012010BD127850
:1004400000F124010A7000224A700122EDE71168D0
:100450004FF0FF32E9E70000074B70B50D467B44D3
:1004600000F011F804462846FFF737FF10B14FF0AF
:10047000FF3070BD204670BDC502000001694A1CF6
:1004800002610878704700B58FB0CDE901310021D5
:10049000059105497944CDE9031011466846FFF7F7
:1004A00095FE0FB000BD0000E5FFFFFF7546FFF7AA
:1004B00021FFAE4605006946534620F007008546F9
:1004C00018B020B5FFF766FEBDE820404FF00006EB
:1004D0004FF000074FF000084FF0000B21F007012C
:1004E000AC46ACE8C009ACE8C009ACE8C009ACE86F
:1004F000C0098D467047000001491820ABBEFEE7D9
:10050000260002007047000020204B4908604B483D
:10051000D0F8A00100F0200030B100BF46480068CC
:1005200000F040000028F9D0032043499C390860BE
:1005300000204249C1F8A8013F490C310860012060
:100540003D49943908603E483C4984310860AA20FE
:100550003A498C31086055200860012037498031C4
:100560000860AA2035498C31086055203349C1F80C
:100570008C0000BF31488830006800F0806000289F
:10058000F8D003202D4980310860AA202B49C1F8FA
:100590008C00552029498C31086000BF27488830DD
:1005A000006800F04070B0F1407FF7D1232023496C
:1005B000A4310860AA202149C1F8AC0055201F4988
:1005C000AC31086001201D49A0310860AA201B49F8
:1005D000AC31086055201949C1F8AC0000BF17487C
:1005E000A830006800F480600028F8D00320134988
:1005F000A0310860AA201149C1F8AC0055200F496C
:10060000AC31086000BF0D48A830006800F44070AD
:10061000B0F5407FF7D10B480849C431086000208D
:100620000649C1F8C8010846006820F4704040F44B
:100630008040086070470000A0C10F4000C00F401C
:1006400063000500DE87280400BF0C49097D01F026
:1006500020010029F9D00A280DD10D21074A117077
:1006600000BF0649097D01F020010029F9D00A21C7
:10067000024A117001E001490870704700C0004053
:100680002DE9F04104460D4617464FF00008661963
:1006900000F07AF96FB105E04FF040208068B04279
:1006A00000D905E01048406900F001000028F3D1AE
:1006B0000DE005E04FF040208068B04200D905E031
:1006C0000948406900F001000028F3D000BF00F0A5
:1006D00062F98046601B404501D8B04502DD03A0A9
:1006E00000F048F9BDE8F08100C009206368656347
:1006F0006B526573706F6E73652829204572726F37
:100700007200000002214FF040225160012151602F
:1007100000BF4FF0402189688142FAD300214FF099
:1007200040225160704710B503460C46D8B2FFF71F
:100730008BFF184610BD000010B5002400220521D3
:100740003220FFF79DFF00F01FF906E04FF0402038
:1007500080684B2801D9022010BD0B48406900F089
:1007600001000028F2D100F016F90446112C03DD37
:10077000252C01DA0020EFE7412C03DD4B2C01DAB8
:100780000120E9E70220E7E700C0092000204FF040
:10079000402108671820C8600220486070470000A8
:1007A0000E48006840F050000C49086083200C4956
:1007B00008730C200870002008710846007A40F089
:1007C00007000872F2200649283108700448007BAF
:1007D00020F08000024908737047000000C002400A
:1007E00000C000408CB0282102A8FFF74CFD00207B
:1007F00000900190FFF7CAFFFFF7D2FF39A0FFF783
:10080000D9FC6EE04548006840F0010043490860AB
:100810000846C06940F00100C86144F25060FFF72B
:1008200071FF3E48006820F001003C49086000F07C
:10083000ABF805E04FF040208068282800D905E09B
:100840003648406900F001000028F3D100BF00F0F5
:10085000A2F805460A2D01D3282D02D930A000F0B8
:1008600089F8002205215020FFF70AFF0122052107
:100870005020FFF705FF00260CE0FFF75DFF044660
:100880000CB1012C02D102A8845502E02DA000F089
:1008900071F8761C282EF0DB0024002014E00021E3
:1008A0000CE0082202FB001202AB9A5C2AB1C1F1F3
:1008B000070301229A402243D4B2491C0829F0DBE5
:1008C0000DF800400024401C0528E8DB9DF80220BC
:1008D0009DF800101EA0FFF76DFC2548FFF712FFE2
:1008E00000BF8FE74F43467265616B732E636F6D78
:1008F000202D20496E746572666163696E672044BD
:10090000485431312077697468204C504331373670
:1009100038204578616D706C652E0A0000C0092092
:100920004661696C656420746F20636F6D6D756ED0
:10093000696361746520776974682073656E736F8D
:100940007200000044617461204572726F72000091
:1009500048756D69646974793D256425252C20549A
:10096000656D703D2564204465672E20430A0000B4
:1009700040420F000446214602A0FFF71BFC00BFC7
:10098000FEE7000025730A0002204FF04021486076
:1009900001204860704700204FF040214860084621
:1009A00080687047D409000000C0072008000000DC
:1009B00008010000D409000000000010000200003F
:1009C00024010000DC09000008C0072060000000CE
:0C09D000240100000000000000000000F6
:04000005000000CD2A
:00000001FF
