:020000040000FA
:100000006802001071010000790100007B0100000E
:100010007D0100007F010000810100000000000060
:10002000000000000000000000000000830100004C
:100030008501000000000000870100008901000028
:100040008B0100008B0100008B0100008B01000080
:100050008B0100008B0100008B0100008B01000070
:100060008B0100008B0100008B0100008B01000060
:100070008B0100008B0100008B0100008B01000050
:100080008B0100008B0100008B0100008B01000040
:100090008B0100008B0100008B0100008B01000030
:1000A0008B0100008B0100008B0100008B01000020
:1000B0008B0100008B0100008B0100008B01000010
:1000C0008B0100008B0100008B01000000F002F8A2
:1000D00000F03FF80AA090E8000C82448344AAF1A3
:1000E0000107DA4501D100F034F8AFF2090EBAE8A1
:1000F0000F0013F0010F18BFFB1A43F0010318475C
:10010000D4080000F4080000103A24BF78C878C171
:10011000FAD8520724BF30C830C144BF04680C600D
:10012000704700000023002400250026103A28BF55
:1001300078C1FBD8520728BF30C148BF0B60704759
:10014000642900F07380002070471FB51FBD10B5F3
:1001500010BD00F047F91146FFF7F7FF00F070FA05
:1001600000F0BAF803B4FFF7F2FF03BC00F060F947
:100170000948804709480047FEE7FEE7FEE7FEE73B
:10018000FEE7FEE7FEE7FEE7FEE7FEE70448054977
:10019000034A054B704700003D040000CD000000FD
:1001A0006800001068020010680000100FB40449D5
:1001B00010B503AA029800F079F810BC5DF814FBA2
:1001C000000000102DE9F0410E4604460020206298
:1001D0002046E168884730B3252805D0D4E90121BD
:1001E0009047206A401CF2E7E168204600278847D4
:1001F000050018D0A5F14100192802D820354FF488
:1002000000673246294620462760FFF799FF40B134
:10021000012804D0F61D26F007060836D8E7361D5B
:10022000D6E72846DAE7206ABDE8F0812DE9F041FB
:100230000646002410687529314616A510D0AFF384
:100240000080002802DA404213A507E031688A07DF
:1002500001D512A502E0490704D511A5012401E04A
:10026000AFF3008000210A2206F1240709E0B0FB69
:10027000F2FCB0FBF2F302FB1C003030785418465D
:10028000491C0028F3D123462A463046BDE8F041F8
:1002900000F036B8000000002D0000002B00000028
:1002A000200000007047704770470000074B70B592
:1002B0000D467B4400F083F80446284600F008F819
:1002C00010B14FF0FF3070BD204670BD7B030000C1
:1002D000007B00F08000704710B50446AFF300804B
:1002E0002046BDE81040FFF73DBF000000487047C2
:1002F000080000107047000000000000FFFFFFFF33
:100300002DE9F0470D4699469246044600F124082F
:100310000168880604D5E06921F01001216000E041
:100320000120A84201DD471B00E00027A1697A19DE
:1003300002EB0900081AA0612078C00602D420460A
:10034000AFF30080002608E0D4E901211AF8060086
:100350009047206A401C761C20624E45F4DB2078D2
:10036000C0060AD52046AFF3008006E0D4E901219B
:1003700030209047206A401C2062381EA7F10107F8
:10038000F4DC07E0D4E9012118F805009047206A61
:10039000401C2062281EA5F10105F3DC2046AFF3C6
:1003A00000802078000602D50220BDE8F0870120F9
:1003B000FBE7000001694A1C02610878704700B53C
:1003C0008FB0CDE901310021059105497944CDE98E
:1003D000031011466846FFF7F5FE0FB000BD0000A0
:1003E000E5FFFFFF7546FFF781FFAE460500694652
:1003F000534620F00700854618B020B5FFF7C6FE2B
:10040000BDE820404FF000064FF000074FF0000815
:100410004FF0000B21F00701AC46ACE8C009ACE896
:10042000C009ACE8C009ACE8C0098D4670470000BF
:1004300001491820ABBEFEE72600020020204B49F0
:1004400008604B48D0F8A00100F0200030B100BF98
:100450004648006800F040000028F9D003204349D6
:100460009C39086000204249C1F8A8013F490C317D
:10047000086001203D49943908603E483C49843178
:100480000860AA203A498C31086055200860012094
:10049000374980310860AA2035498C3108605520E1
:1004A0003349C1F88C0000BF31488830006800F043
:1004B00080600028F8D003202D4980310860AA20F0
:1004C0002B49C1F88C00552029498C31086000BFA8
:1004D00027488830006800F04070B0F1407FF7D1C5
:1004E00023202349A4310860AA202149C1F8AC0087
:1004F00055201F49AC31086001201D49A03108601A
:10050000AA201B49AC31086055201949C1F8AC003C
:1005100000BF1748A830006800F480600028F8D0B9
:1005200003201349A0310860AA201149C1F8AC008A
:1005300055200F49AC31086000BF0D48A830006855
:1005400000F44070B0F5407FF7D10B480849C43142
:10055000086000200649C1F8C8010846006820F478
:10056000704040F48040086070470000A0C10F4018
:1005700000C00F4063000500DE87280400204FF014
:100580004021086746F2A710C86002204860704703
:1005900000BF0C49097D01F020010029F9D00A288B
:1005A0000DD10D21074A117000BF0649097D01F0E8
:1005B00020010029F9D00A21024A117001E0014905
:1005C0000870704700C0004002214FF04022516087
:1005D0000121516000BF4FF0402189688142FAD368
:1005E00000214FF040225160704700000E48006823
:1005F00040F050000C49086083200C4908730C201F
:100600000870002008710846007A40F00700087260
:10061000F2200649283108700448007B20F0800051
:10062000024908737047000000C0024000C000404B
:1006300010B503460C46D8B2FFF7AAFF184610BD06
:10064000FFF7D4FFFFF79AFF1E48006840F4805080
:100650001C49C439C1F8C4001B48406840F48040BC
:100660001949486019481A49086000241948FFF7D9
:100670009DFD25E01648006840F080701449086030
:1006800000BF1348006900F000400028F9D010486E
:100690000069C0F30B14204600F057F807464FF0EE
:1006A00066320D4B00F068F8054600F01FF88146F1
:1006B00049460AA0FFF77AFD4FF4FA70FFF784FF6E
:1006C000D8E70000C4C00F4000C002400101200074
:1006D000004003407409000066660A404144302E21
:1006E00030203D2025646D560A0000004FEA41038A
:1006F0004FEA5353A3F58063D3F11E03C8BFD3F170
:10070000210C0CDD4FF0004242EAC12242EA505275
:1007100032FA03FC8CEAE17CACEBE1707047102B01
:10072000C4BF0020704703F5787CBCF1FF3F04D0C4
:100730006FF0004282EA2100704770B500F0C6F801
:100740004992248000207047F2E710F0004248BF31
:100750004042B0FA80F310FA03F10AD0C3F11D034E
:1007600003F580634FEA415002EB035202EBD121C3
:1007700070474FF000007047DFF848C170B51CEAC1
:10078000111E1EBF1CEA13159EEA0C0F95EA0C0FF2
:1007900000F06F8081EA030423EA4C134EEAD47E12
:1007A00021EA4C1141F4801143F48013AE44A1FBC3
:1007B000024CA0FB0365AEF17F7E361955EB0C05AC
:1007C000A1FB034C4CF10003A0FB021C16EB0C0632
:1007D000654153F10003094218BF46F0010613F4C6
:1007E000007F0BD14FEA03314FEA0530340341EA71
:1007F000155140EA16506FF003020AE04FEAC32198
:100800004FEAC520F40241EA555140EA56506FF0D4
:10081000020202EB2E4201EB025585EACE710AD0AC
:100820005FEA440C18BF24F0004450F1000041F18D
:10083000000120EAD47040F2FE7C624500D270BD17
:10084000A84214BF4FF080444FF04044002E08BF30
:100850000024BEF1806FA8BFA1F1C041BDE8704087
:1008600080F282804FF0000001F1C04101F00041B0
:1008700070479EEA0C0F0CEA131518BF95EA0C0F8F
:1008800006D04FF0000081EA030E0EF0004170BD6B
:1008900000F01CF88900013E00F007B800F009B82C
:1008A0004FEA430C5FEA5C5C08D081EA030100F088
:1008B0005BB84FEA410C5FEA5C5CF6D14FF0000098
:1008C000014970470000FF070000F87F0EF1020E9B
:1008D0002EF0030E5EF8046B364205D4012A43EB7A
:1008E000030515F5001F12D8012841EB010C1CF57A
:1008F000001F0CD80ED14FEAD17C15F5001F0CEB70
:100900004C0C0CF1020C08BF4CEBD37C04E04FF014
:10091000080C01E04FEAD37C0CEB4C0526FA05F6F7
:1009200006F00706B6F1040C06D20EEB860CBDE805
:1009300070404CF0010C6047DFE80CF0090B02023C
:100940004FF000414FF00000A1F5002170BD1946A5
:100950001046012851EB010418BFD4F5001484BFE0
:10096000002001F0004170BD0808A0F500114FEA19
:10097000310170474F43467265616B732E636F6D33
:10098000204C50433137367820414443205475740D
:100990006F7269616C204578616D706C6520312ED5
:1009A0000A536F66747761726520436F6E74726F5D
:1009B0006C6C656420414443204D6F6465206F6E0C
:1009C000204144302E30204368616E6E656C2E0AE3
:1009D00000000000F4090000000000100800000002
:1009E00008010000FC09000008000010600200007F
:0C09F000240100000000000000000000D6
:04000005000000CD2A
:00000001FF
