:020000040000FA
:100000006802001071010000790100007B0100000E
:100010007D0100007F010000810100000000000060
:10002000000000000000000000000000830100004C
:100030008501000000000000870100008901000028
:100040008B0100008B0100008B0100008B01000080
:100050008B0100008B0100008B0100008B01000070
:100060008B0100008B0100008B0100008B01000060
:100070008B0100008B0100008B0100008B01000050
:100080008B0100008B0100008B0100008B01000040
:100090008B0100008B0100008B0100008B01000030
:1000A0008B0100008B0100008B0100008B01000020
:1000B0008B0100008B0100008B0100008B01000010
:1000C0008B0100008B0100008B01000000F002F8A2
:1000D00000F03FF80AA090E8000C82448344AAF1A3
:1000E0000107DA4501D100F034F8AFF2090EBAE8A1
:1000F0000F0013F0010F18BFFB1A43F0010318475C
:10010000840D0000A40D0000103A24BF78C878C107
:10011000FAD8520724BF30C830C144BF04680C600D
:10012000704700000023002400250026103A28BF55
:1001300078C1FBD8520728BF30C148BF0B60704759
:10014000642900F07380002070471FB51FBD10B5F3
:1001500010BD00F047F91146FFF7F7FF00F070FA05
:1001600000F0BAF803B4FFF7F2FF03BC00F060F947
:100170000948804709480047FEE7FEE7FEE7FEE73B
:10018000FEE7FEE7FEE7FEE7FEE7FEE70448054977
:10019000034A054B704700003D040000CD000000FD
:1001A0006800001068020010680000100FB40449D5
:1001B00010B503AA029800F079F810BC5DF814FBA2
:1001C000000000102DE9F0410E4604460020206298
:1001D0002046E168884730B3252805D0D4E90121BD
:1001E0009047206A401CF2E7E168204600278847D4
:1001F000050018D0A5F14100192802D820354FF488
:1002000000673246294620462760FFF799FF40B134
:10021000012804D0F61D26F007060836D8E7361D5B
:10022000D6E72846DAE7206ABDE8F0812DE9F041FB
:100230000646002410687529314616A510D0AFF384
:100240000080002802DA404213A507E031688A07DF
:1002500001D512A502E0490704D511A5012401E04A
:10026000AFF3008000210A2206F1240709E0B0FB69
:10027000F2FCB0FBF2F302FB1C003030785418465D
:10028000491C0028F3D123462A463046BDE8F041F8
:1002900000F036B8000000002D0000002B00000028
:1002A000200000007047704770470000074B70B592
:1002B0000D467B4400F083F80446284600F008F819
:1002C00010B14FF0FF3070BD204670BD7B030000C1
:1002D000007B00F08000704710B50446AFF300804B
:1002E0002046BDE81040FFF73DBF000000487047C2
:1002F000080000107047000000000000FFFFFFFF33
:100300002DE9F0470D4699469246044600F124082F
:100310000168880604D5E06921F01001216000E041
:100320000120A84201DD471B00E00027A1697A19DE
:1003300002EB0900081AA0612078C00602D420460A
:10034000AFF30080002608E0D4E901211AF8060086
:100350009047206A401C761C20624E45F4DB2078D2
:10036000C0060AD52046AFF3008006E0D4E901219B
:1003700030209047206A401C2062381EA7F10107F8
:10038000F4DC07E0D4E9012118F805009047206A61
:10039000401C2062281EA5F10105F3DC2046AFF3C6
:1003A00000802078000602D50220BDE8F0870120F9
:1003B000FBE7000001694A1C02610878704700B53C
:1003C0008FB0CDE901310021059105497944CDE98E
:1003D000031011466846FFF7F5FE0FB000BD0000A0
:1003E000E5FFFFFF7546FFF781FFAE460500694652
:1003F000534620F00700854618B020B5FFF7C6FE2B
:10040000BDE820404FF000064FF000074FF0000815
:100410004FF0000B21F00701AC46ACE8C009ACE896
:10042000C009ACE8C009ACE8C0098D4670470000BF
:1004300001491820ABBEFEE72600020020204B49F0
:1004400008604B48D0F8A00100F0200030B100BF98
:100450004648006800F040000028F9D003204349D6
:100460009C39086000204249C1F8A8013F490C317D
:10047000086001203D49943908603E483C49843178
:100480000860AA203A498C31086055200860012094
:10049000374980310860AA2035498C3108605520E1
:1004A0003349C1F88C0000BF31488830006800F043
:1004B00080600028F8D003202D4980310860AA20F0
:1004C0002B49C1F88C00552029498C31086000BFA8
:1004D00027488830006800F04070B0F1407FF7D1C5
:1004E00023202349A4310860AA202149C1F8AC0087
:1004F00055201F49AC31086001201D49A03108601A
:10050000AA201B49AC31086055201949C1F8AC003C
:1005100000BF1748A830006800F480600028F8D0B9
:1005200003201349A0310860AA201149C1F8AC008A
:1005300055200F49AC31086000BF0D48A830006855
:1005400000F44070B0F5407FF7D10B480849C43142
:10055000086000200649C1F8C8010846006820F478
:10056000704040F48040086070470000A0C10F4018
:1005700000C00F4063000500DE87280400204FF014
:100580004021086746F2A710C86002204860704703
:1005900000BF0C49097D01F020010029F9D00A288B
:1005A0000DD10D21074A117000BF0649097D01F0E8
:1005B00020010029F9D00A21024A117001E0014905
:1005C0000870704700C0004002214FF04022516087
:1005D0000121516000BF4FF0402189688142FAD368
:1005E00000214FF040225160704700000E48006823
:1005F00040F050000C49086083200C4908730C201F
:100600000870002008710846007A40F00700087260
:10061000F2200649283108700448007B20F0800051
:10062000024908737047000000C0024000C000404B
:1006300010B503460C46D8B2FFF7AAFF184610BD06
:10064000FFF7D4FFFFF79AFF2648006840F4805078
:100650002449C439C1F8C4002348406840F48040AC
:10066000214948602148224908604FF0000A4FF0B4
:10067000000B2048FFF79AFD32E01D48006840F06B
:1006800080701B49086000BF1948006900F00040F5
:100690000028F9D016480069C0F30B1A504600F044
:1006A000C3F980464FF06632134B00F0D5F9064689
:1006B0000022124B00F060F8044600F02BF883464D
:1006C0000F49584600F0E2FA054600F0C3FA044626
:1006D00021460CA0FFF76AFD4FF4FA70FFF774FF94
:1006E000CBE70000C4C00F4000C002400101200061
:1006F00000400340240E000066660A400000B0403F
:1007000000007A444144302E30203D2025646D564F
:100710000A00000021F00042A2F16052B2F5801FF1
:1007200001F0004328BFD2F17F6C0BD95FEA001CB7
:1007300043EAC20242EB507018BF704728BF20F056
:1007400001007047B2F5801FBCBF184670474FEAE2
:10075000410C1CF5001F02D2084600F05EBB70B5CC
:1007600000F024FA00000089FFF7F6BF4FF00040C8
:10077000A0F58000704700002DE9C04130B4DFF8DB
:10078000A0C23CEA111418BF3CEA131400F0EC803C
:1007900081EA03051CEA111444EAD57418BF1CEA67
:1007A000131500F0C780A4EB05044FF0004545EA9F
:1007B000C12145EAC32341EA505143EA525304F1AF
:1007C0007F74994204F500344FEAC0204FEAC222F8
:1007D00008BF904200F09C804FEA13650FF240166C
:1007E000765D4FEA134506FB05F7C7F1807706FBF8
:1007F00007F74FEAD737A7FB03687642C8F580387A
:10080000A7FB06CE38BFA8F1010807FB08E64FF0AA
:10081000000EA6FB028CE6FB03CEDCF1000CCEF151
:10082000004E38BFAEF1010EA6FB0C584FF000078A
:100830004FF00005E6FB0E87A1FB08C6A0FB07CE24
:1008400016EB0E0645F10005E1FB076515F1E04EDC
:100850007EBFA4F580345FEA46066D4116F180073D
:1008600045F100054FEA17274FEA066647EA056794
:10087000A6F1DE46B6F1805F4FEA15251FD938464E
:1008800024F0010C05EBC471BCF1FE6F01EB0C11FF
:1008900002D8F0BCBDE8008124425CBF01F5801E97
:1008A0009EEAC47F02D4F0BCBDE80081244238D463
:1008B000F0BCA1F1C041BDE8004100F0C5B94FEA6C
:1008C000D22242EA43524FEAD323A7FB02864FEAE1
:1008D000D02040EA415007FB03661EEA0E0F4FEAA4
:1008E000D12105FB026658BFA6EB0056B6EB0056B9
:1008F0004FEA520E4EEAC37E18EB0E0E56EB530E25
:10090000BDD518EB02085E417F1C55F10005B6E726
:100910004FF480154FF000074FF000064FF000082D
:10092000ADE7F0BC4FF0000001F1C04101F0004123
:10093000BDE8008111EA0C1F0CEA131500D00CE091
:1009400013EA0C1F00F025804FF00000F0BC81EA94
:10095000030101F00041BDE80081F0BCBDE80041A9
:1009600081EA030100F070B9F0BCBDE8004170B548
:1009700000F01CF9097EFC3E00F007B881EA030193
:100980004FF0000001F00041704781EA030100F0E0
:100990005BB9F0BCBDE800414FF000002149704751
:1009A000FFFDFBF9F7F5F4F2F0EEEDEBE9E8E6E434
:1009B000E3E1E0DEDDDBDAD8D7D5D4D3D1D0CFCDBB
:1009C000CCCBCAC8C7C6C5C4C2C1C0BFBEBDBCBBF4
:1009D000BAB9B8B7B6B5B4B3B2B1B0AFAEADACABEF
:1009E000AAA9A8A8A7A6A5A4A3A3A2A1A09F9F9EC9
:1009F0009D9C9C9B9A99999897979695959493937B
:100A0000929191908F8F8E8E8D8C8C8B8B8A898911
:100A10008888878786858584848383828281818094
:100A20000000FF070000F87F10F0004248BF40427E
:100A3000B0FA80F310FA03F10AD0C3F11D0303F5F5
:100A400080634FEA415002EB035202EBD121704721
:100A50004FF0000070470000DFF848C170B51CEA95
:100A6000111E1EBF1CEA13159EEA0C0F95EA0C0F0F
:100A700000F06F8081EA030423EA4C134EEAD47E2F
:100A800021EA4C1141F4801143F48013AE44A1FBE0
:100A9000024CA0FB0365AEF17F7E361955EB0C05C9
:100AA000A1FB034C4CF10003A0FB021C16EB0C064F
:100AB000654153F10003094218BF46F0010613F4E3
:100AC000007F0BD14FEA03314FEA0530340341EA8E
:100AD000155140EA16506FF003020AE04FEAC321B5
:100AE0004FEAC520F40241EA555140EA56506FF0F2
:100AF000020202EB2E4201EB025585EACE710AD0CA
:100B00005FEA440C18BF24F0004450F1000041F1AA
:100B1000000120EAD47040F2FE7C624500D270BD34
:100B2000A84214BF4FF080444FF04044002E08BF4D
:100B30000024BEF1806FA8BFA1F1C041BDE87040A4
:100B400080F282804FF0000001F1C04101F00041CD
:100B500070479EEA0C0F0CEA131518BF95EA0C0FAC
:100B600006D04FF0000081EA030E0EF0004170BD88
:100B700000F01CF88900013E00F007B800F009B849
:100B80004FEA430C5FEA5C5C08D081EA030100F0A5
:100B90005BB84FEA410C5FEA5C5CF6D14FF00000B5
:100BA000014970470000FF070000F87F0EF1020EB8
:100BB0002EF0030E5EF8046B364205D4012A43EB97
:100BC000030515F5001F12D8012841EB010C1CF597
:100BD000001F0CD80ED14FEAD17C15F5001F0CEB8D
:100BE0004C0C0CF1020C08BF4CEBD37C04E04FF032
:100BF000080C01E04FEAD37C0CEB4C0526FA05F615
:100C000006F00706B6F1040C06D20EEB860CBDE822
:100C100070404CF0010C6047DFE80CF0090B020259
:100C20004FF000414FF00000A1F5002170BD1946C2
:100C30001046012851EB010418BFD4F5001484BFFD
:100C4000002001F0004170BD0808A0F500114FEA36
:100C50003101704741000B0ED3F19E0208D950F4C8
:100C600000034FEA032323FA02F048BF40427047D3
:100C700010B500F08CF800BF499224800020704726
:100C80006FF0004282EA2000704700004FF47F0CB2
:100C90001CEAD0121EBF1CEAD11392EA0C0F93EA91
:100CA0000C0F00F0478090EA010F48BF42F48072B9
:100CB0004FF0004C4CEA00204CEA012102EB030209
:100CC000A0FB0113A2F50002002918BF43F00103A5
:100CD0005B0028BF4FEA330342EB22425FEA132C4A
:100CE0004CEBC2502EBFBCEB436FB2F57C0F70478C
:100CF0004FEA036CBCF1004F08BF20F00100B2F5D1
:100D00007C0F38BF70470BD582F0FF0212F5803F91
:100D1000C8BF704700F1C040D8BF00F00040704726
:100D200000F5000C5FEA4C0C48BF7047B0F1C040C2
:100D300000F073B890EA010F0CEAD11348BF42F4F7
:100D40008072624538BF634504D280EA010000F03A
:100D50000040704710B500F01AF800BF8900013E4E
:100D600000F007B800F009B85FEA410C5FEA1C6CBC
:100D700008D080EA010000F050B85FEA400C5FEA5A
:100D80001C6CF6D14FF00040A0F5800070470EF1CA
:100D9000020E2EF0030E5EF8044B244204D44FEAF8
:100DA0004102B2F17F4F11D84FEA4003B3F17F4FB8
:100DB0000CD80ED14FEAD07CB2F17F4F0CEB4C0C2B
:100DC0000CF1020C08BF4CEBD17C04E04FF0080C96
:100DD00001E04FEAD17C0CEB4C0324FA03F404F05D
:100DE0000704B4F1040C06D20EEB840CBDE81040ED
:100DF0004CF0010C6047DFE80CF0070802024FF0EE
:100E00000040A0F5800010BD0846420018BFD2F196
:100E1000807288BF00F0004010BDFF2141EAD05031
:100E2000C00570474F43467265616B732E636F6DEB
:100E3000204C504331373678204144432054757458
:100E40006F7269616C204578616D706C6520312E20
:100E50000A536F66747761726520436F6E74726FA8
:100E60006C6C656420414443204D6F6465206F6E57
:100E7000204144302E30204368616E6E656C2E0A2E
:100E800000000000A40E0000000000100800000098
:100E900008010000AC0E0000080000106002000015
:0C0EA00024010000000000000000000021
:04000005000000CD2A
:00000001FF
