:020000040000FA
:100000006802001069010000710100007301000026
:100010007501000077010000790100000000000078
:100020000000000000000000000000007B01000054
:100030007D010000000000007F0100008101000040
:1000400083010000830100008301000083010000A0
:100050008301000083010000830100008301000090
:100060008301000083010000830100008301000080
:100070008301000083010000830100008301000070
:100080008301000083010000830100008301000060
:100090008301000083010000830100008301000050
:1000A0008301000083010000830100008301000040
:1000B0008301000083010000830100008301000030
:1000C00083010000830100008301000000F002F8BA
:1000D00000F03AF80AA090E8000C82448344AAF1A8
:1000E0000107DA4501D100F02FF8AFF2090EBAE8A6
:1000F0000F0013F0010F18BFFB1A43F0010318475C
:10010000A0040000C0040000103A24BF78C878C1E1
:10011000FAD8520724BF30C830C144BF04680C600D
:10012000704700000023002400250026103A28BF55
:1001300078C1FBD8520728BF30C148BF0B60704759
:100140001FB51FBD10B510BD00F06AF81146FFF7CE
:10015000F7FF00F0C3F900F09CF803B4FFF7F2FFDB
:1001600003BC00F0A3F80000094880470948004795
:10017000FEE7FEE7FEE7FEE7FEE7FEE7FEE7FEE757
:10018000FEE7FEE704480549034A054B70470000B7
:1001900001030000CD00000068000010680200109C
:1001A000680000100FB4044910B503AA029800F0CB
:1001B00009F810BC5DF814FB000000107047704790
:1001C00070470000074B70B50D467B4400F011F8F6
:1001D0000446284600F020F810B14FF0FF3070BD03
:1001E000204670BDA702000001694A1C0261087820
:1001F000704700B58FB0CDE9013100210591054967
:100200007944CDE903101146684600F02EF80FB08E
:1002100000BD0000E5FFFFFF007B00F0800070479D
:10022000754600F03FF8AE4605006946534620F09B
:100230000700854618B020B5FFF7A4FFBDE82040B1
:100240004FF000064FF000074FF000084FF0000B92
:1002500021F00701AC46ACE8C009ACE8C009ACE845
:10026000C009ACE8C0098D4670472DE9F04106464B
:100270000024D6E90170F5688046304603E0414627
:10028000B847641C3046A8470028F8D12046BDE88E
:10029000F08110B50446AFF300802046BDE8104061
:1002A000FFF75BBF004870470800001001491820A5
:1002B000ABBEFEE7260002007047000000BF0C49FD
:1002C000097D01F020010029F9D00A280DD10D2166
:1002D000074A117000BF0649097D01F0200100297D
:1002E000F9D00A21024A117001E0014908707047F3
:1002F00000C000400000000000000000FFFFFFFF02
:1003000020204B4908604B48D0F8A00100F02000A5
:1003100030B100BF4648006800F040000028F9D026
:10032000032043499C39086000204249C1F8A801D4
:100330003F490C31086001203D49943908603E482E
:100340003C4984310860AA203A498C310860552024
:1003500008600120374980310860AA2035498C3176
:10036000086055203349C1F88C0000BF31488830FF
:10037000006800F080600028F8D003202D4980310B
:100380000860AA202B49C1F88C00552029498C31DE
:10039000086000BF27488830006800F04070B0F166
:1003A000407FF7D123202349A4310860AA202149A6
:1003B000C1F8AC0055201F49AC31086001201D492F
:1003C000A0310860AA201B49AC31086055201949AA
:1003D000C1F8AC0000BF1748A830006800F4806086
:1003E0000028F8D003201349A0310860AA20114941
:1003F000C1F8AC0055200F49AC31086000BF0D4872
:10040000A830006800F44070B0F5407FF7D10B4889
:100410000849C431086000200649C1F8C8010846EF
:10042000006820F4704040F480400860704700008D
:10043000A0C10F4000C00F4063000500DE87280404
:1004400000B503464FF47A7103FB01F000F001F8A8
:1004500000BD02214FF0402251600121516000BFD8
:100460004FF0402189688142FAD300214FF04022A9
:100470005160704710B503460C46D8B2FFF71EFF17
:10048000184610BD00204FF0402108671820C860B2
:1004900002204860704700000E48006840F050009D
:1004A0000C49086083200C4908730C200870002058
:1004B00008710846007A40F007000872F2200649E9
:1004C000283108700448007B20F08000024908733E
:1004D0007047000000C0024000C00040FFF7DCFF92
:1004E000FFF7D0FF0A48FFF75DFE0FE009484069BB
:1004F00000F0020018B908A0FFF754FE02E00BA0BC
:10050000FFF750FE4FF4FA70FFF79AFFEEE7000096
:100510004005000000C009204F62737461636C6580
:10052000204465746563746564210A004E6F204F32
:1005300062737461636C652061686561642E0A0092
:100540004F43467265616B732E636F6D204C504351
:100550003137367820414443205475746F72696195
:100560006C204578616D706C6520312E0A536F6682
:10057000747761726520436F6E74726F6C6C656422
:1005800020414443204D6F6465206F6E204144300C
:100590002E30204368616E6E656C2E0A00000000EC
:1005A000C005000000000010080000000801000065
:1005B000C8050000080000106002000024010000CF
:0805C000000000000000000033
:04000005000000CD2A
:00000001FF
