:020000040000FA
:1000000068020010850100008D0100008F010000D2
:100010009101000093010000950100000000000024
:100020000000000000000000000000009701000038
:1000300099010000000000009B0100009D010000EC
:100040009F0100009F0100009F0100009F01000030
:100050009F0100009F0100009F0100009F01000020
:100060009F0100009F0100009F0100009F01000010
:100070009F0100009F0100009F0100009F01000000
:100080009F0100009F0100009F0100009F010000F0
:100090009F0100009F0100009F0100009F010000E0
:1000A0009F0100009F0100009F0100009F010000D0
:1000B0009F0100009F0100009F0100009F010000C0
:1000C0009F0100009F0100009F01000000F002F866
:1000D00000F048F80AA090E8000C82448344AAF19A
:1000E0000107DA4501D100F03DF8AFF2090EBAE898
:1000F0000F0013F0010F18BFFB1A43F0010318475C
:10010000CC0C0000EC0C0000103A24BF78C878C179
:10011000FAD8520724BF30C830C144BF04680C600D
:10012000704700000023002400250026103A28BF55
:1001300078C1FBD8520728BF30C148BF0B60704759
:10014000642900F07D80002070471FB500F074FC2A
:1001500004000020002100F0FBFD401C60601FBD7A
:1001600010B510BD00F040FA1146FFF7EEFF00F0A9
:100170007BFD00F045FC03B4FFF7F2FF03BC00F089
:1001800055FC00000948804709480047FEE7FEE7A4
:10019000FEE7FEE7FEE7FEE7FEE7FEE7FEE7FEE737
:1001A00004480549034A054B70470000C10A000096
:1001B000CD00000068000010680200106800001008
:1001C0000FB4044910B503AA029800F099F910BCC5
:1001D0005DF814FB000000102DE9F0410E460446C6
:1001E000002020622046E168884730B3252805D0EA
:1001F000D4E901219047206A401CF2E7E1682046DB
:1002000000278847050018D0A5F14100192802D819
:1002100020354FF400673246294620462760FFF715
:100220008FFF40B1012804D0F61D26F007060836DE
:10023000D8E7361DD6E72846DAE7206ABDE8F08120
:100240002DE9F0410646002410687529314616A5AF
:1002500010D0AFF30080002802DA404213A507E077
:1002600031688A0701D512A502E0490704D511A516
:10027000012401E0AFF3008000210A2206F12407E7
:1002800009E0B0FBF2FCB0FBF2F302FB1C003030E3
:1002900078541846491C0028F3D123462A46304694
:1002A000BDE8F04100F0D2B8000000002D000000D1
:1002B0002B000000200000000FB400B589B00BA88F
:1002C0006A46009003480A9900F02CF909B05DF8DD
:1002D00014FB0000040000107047704770473A2874
:1002E00000D2303820F02002412A01D3A2F1370099
:1002F000884201D34FF0FF3070477047FFFFFFFF88
:100300002DE9FF5F1D464FF0FF3B91464FF000087F
:100310005F46D5E90146A96901987F1C8847296A8B
:10032000824688470028F6D1BAF1FF3F0CD0002E54
:1003300024F4C06419DD600614D5BAF12B0F09D07E
:10034000BAF12D0F0ED103E0584604B0BDE8F09F7E
:1003500044F48064A96901987F1C8847761E824610
:10036000002E02DDBAF1300F03D0B9F1000F26D014
:1003700032E0A969761E01987F1C44F40074884716
:10038000002E824605DDBAF1780F06D0BAF1580F7B
:1003900003D0B9F1000F10D01EE0B9F1000F02D068
:1003A000B9F1100F18D1A969761E01987F1C24F4A9
:1003B000007488478246102002E0082000E00A20EE
:1003C000814609E0A96908FB0908761E01987F1C8F
:1003D00044F4007488478246002E05DD49465046A5
:1003E000FFF77DFF0028EDDAE96901988847A0054D
:1003F00002D46FF00100A8E7E00725D1600613D50D
:10040000600502D5C8F1000000E0404629680A1DD9
:100410002A600968220501D5087015E0220701D578
:10042000088011E008600FE02868011D296000685D
:10043000210502D580F8008006E0210702D5A0F84A
:10044000008001E0C0F8008038467EE72DE9F047E3
:100450000D4699469246044600F124080168880634
:1004600004D5E06921F01001216000E00120A842DC
:1004700001DD471B00E00027A1697A1902EB0900A2
:10048000081AA0612078C00602D42046AFF300808D
:10049000002608E0D4E901211AF806009047206AF6
:1004A000401C761C20624E45F4DB2078C0060AD53D
:1004B0002046AFF3008006E0D4E9012130209047C8
:1004C000206A401C2062381EA7F10107F4DC07E017
:1004D000D4E9012118F805009047206A401C2062E9
:1004E000281EA5F10105F3DC2046AFF3008020783B
:1004F000000602D50220BDE8F0870120FBE70000DE
:10050000074B70B50D467B4400F01DF804462846A5
:1005100000F066F810B14FF0FF3070BD204670BD9E
:100520000B070000034B7B449361034B7B44D36177
:1005300000F022B8D70600006B00000001694A1CD9
:1005400002610878704700B58FB0CDE90131002114
:10055000059105497944CDE9031011466846FFF736
:100560003BFE0FB000BD0000E5FFFFFF0268114435
:100570001378016018467047D1600549794451618C
:1005800004497944116200211161114600F05AB802
:10059000EDFFFFFFAD000000704710B54FF0FF34D6
:1005A000C1688A020FD5036B42689A420BD101469B
:1005B00090F82520104600F0FFF9401C01D120469C
:1005C00010BD002010BD11F0C00FF8D102694168C4
:1005D0009142F4D90268491E521CC0E90021F0E79B
:1005E000007B00F080007047754600F013FAAE46BD
:1005F00005006946534620F00700854618B020B52F
:10060000FFF7CEFDBDE820404FF000064FF0000799
:100610004FF000084FF0000B21F00701AC46ACE8AA
:10062000C009ACE8C009ACE8C009ACE8C0098D4617
:10063000704710B5044600F0F1F90068005D00F065
:10064000010010BD2DE9F34F4FF0000A0C4656464D
:100650008DB001200C9001F10C000B9062690B9899
:1006600001219047051E2DD0252D2CD0216A8847C9
:10067000C0B162690B9801219047216A8847002820
:10068000F7D16269411E0B98904700E0761CA16982
:100690000D988847216A88470028F7D1E1690D98AD
:1006A0008847DBE7A1690D988847A842074601D132
:1006B000761CD3E7E1690D9888477F1C02D1BAF117
:1006C000000F6FD06BE162690B9800273D463946F9
:1006D00090472A2804D162690B980121904701258F
:1006E000DFF8D08262690B9801219047A0F13001B8
:1006F0000A290AD24745E5DC07EB870100EB4107F1
:10070000303FDFD445F01005ECE7E90601D46FF087
:1007100000476C280AD04C2814D0682815D06A28C5
:100720000DD074281CD07A281AD01DE062690B986D
:10073000012190476C2802D045F0040514E045F0F3
:1007400002050DE045F020050AE062690B980121E1
:100750009047682802D045F0080505E045F400659B
:1007600062690B9801219047C4E9015765283DD083
:1007700019DC58287AD00CDC452837D004DC252831
:1007800026D041289ED131E046282FD0472899D144
:100790002CE05B2877D0612828D063287CD064289F
:1007A00023D15AE0F6E06F2848D008DC66281DD037
:1007B00067281BD0692821D06E2816D127E0702821
:1007C00045D0732868D0752847D078280DD14DE0E2
:1007D000A1690D988847252805463FF469AFE1696E
:1007E0000D9888476D1C3FF46AAFD8E00D992346F9
:1007F0006A466FF00100AFF30080C5E045F04000AD
:1008000023464FF000026060A80736D43EE0E807B8
:100810007FF447AF2068011D21600068290501D5DC
:1008200006701BE7290701D5068017E7A90703D53E
:10083000F117C0E9006111E706600FE745F04000DD
:1008400023464FF008026060A80716D41EE040F669
:100850000E0125EA0100606016E045F040002346E5
:100860004FF00A026060A80707D40FE045F040008F
:100870006060A80708D5234610220D996FF001008B
:10088000AFF3008080E007E0102223460D996FF05F
:100890000100FFF735FD77E04FF0000963284F4670
:1008A000C8464B46CB4602D05B2806D038E0E80667
:1008B00001D40120A060012732E06269D4F80CB0B5
:1008C0000B98012190475E2807D14FF00109494656
:1008D0006269D4F80CB00B989047216939B90021AE
:1008E0000A4603AB43F82120491C0829FADBD8B398
:1008F000216949B308F1010862690B980121904709
:100900005D28F4D1B9F1000F09D0002003A951F8F6
:100910002020D24341F82020401C0828F7DB03ABFD
:100920002069002820794FEA40701ED05B4622469D
:10093000CDF80080CDE901970D9900286FF00100F6
:1009400020DAAFF300801FE0C11703AA00EBD161EA
:100950004B1121F01F0102EB8302411A13680120A1
:10096000884003431360C7E719E00D992246002829
:100970006FF00100009702DAAFF3008004E0AFF3FC
:10098000008001E0AFF3008000280ADA401C06D1A5
:100990000C9820B14FF0FF300FB0BDE8F08F5046FB
:1009A000FAE7E90701D10AF1010A064400200C9098
:1009B00054E60000CCCCCC0CCA68431C0FD00D4BC5
:1009C0001A420CD1D3070AD081F825004B680B637B
:1009D00000238B6012F0C06F0B6003D004E04FF077
:1009E000FF30704742F00072034B1A40034B1A432A
:1009F000CA60704780200800BFFFDFFF001048007A
:100A000010B50446AFF300802046BDE81040FFF764
:100A1000B2BB0000004870470800001010B500F09D
:100A20000BF8001D10BD00BF29030000014918206C
:100A3000ABBEFEE726000200004870472800001009
:100A40004FF0013C50F8042B51F8043B9A4221D15D
:100A5000A2EB0C03934313EACC1317D150F8042BE9
:100A600051F8043B9A4215D1A2EB0C03934313EACD
:100A7000CC130BD150F8042B51F8043B9A4209D106
:100A8000A2EB0C03934313EACC13DBD04FF000002E
:100A9000704700BFD01A01BAB1FA81F101F0180114
:100AA00022FA01F0CB40C1F12001DBB2C0B2C01A82
:100AB0002CFA01F3D11A914311EAC311E6D1704720
:100AC00020204B4908604B48D0F8A00100F02000DE
:100AD00030B100BF4648006800F040000028F9D05F
:100AE000032043499C39086000204249C1F8A8010D
:100AF0003F490C31086001203D49943908603E4867
:100B00003C4984310860AA203A498C31086055205C
:100B100008600120374980310860AA2035498C31AE
:100B2000086055203349C1F88C0000BF3148883037
:100B3000006800F080600028F8D003202D49803143
:100B40000860AA202B49C1F88C00552029498C3116
:100B5000086000BF27488830006800F04070B0F19E
:100B6000407FF7D123202349A4310860AA202149DE
:100B7000C1F8AC0055201F49AC31086001201D4967
:100B8000A0310860AA201B49AC31086055201949E2
:100B9000C1F8AC0000BF1748A830006800F48060BE
:100BA0000028F8D003201349A0310860AA20114979
:100BB000C1F8AC0055200F49AC31086000BF0D48AA
:100BC000A830006800F44070B0F5407FF7D10B48C2
:100BD0000849C431086000200649C1F8C801084628
:100BE000006820F4704040F48040086070470000C6
:100BF000A0C10F4000C00F4063000500DE8728043D
:100C000010B5044600F07CF80346184600F084F85E
:100C1000184610BD10B503460C46D8B200F07CF85B
:100C2000184610BD0E48006840F050000C4908609E
:100C300083200C4908730C200870002008710846B6
:100C4000007A40F007000872F22006492831087047
:100C50000448007B20F080000249087370470000C0
:100C600000C0024000C0004008B500200090FFF71F
:100C7000D9FF0D48FFF7A4FA15E00CA0FFF7A0FA82
:100C8000694614A0FFF718FB0098002808DB0098BD
:100C9000B0F57A7F04DC10A00099FFF791FA02E02A
:100CA00012A0FFF78DFAE8E77C0D0000456E746531
:100CB0007220616E20496E7465676572206265748A
:100CC0007765656E203020616E6420313030303AB7
:100CD00000000000256400000A596F7520656E74DD
:100CE000657265643A2025640A0000000A496E7640
:100CF000616C696420696E707574210A00000000DF
:100D000000BF0448007D00F001000028F9D0014830
:100D10000078704700C0004000BF0C49097D01F019
:100D200020010029F9D00A280DD10D21074A1170A0
:100D300000BF0649097D01F020010029F9D00A21F0
:100D4000024A117001E001490870704700C000407C
:100D500010B500290AD00878002807D00548784443
:100D6000FFF76EFE002801D0002010BD0248784435
:100D700010BD00008E00000086000000486579214B
:100D8000205468697320697320796F7572206265D9
:100D90006C6F766564207072696E746628292E0AFD
:100DA000492068617665206265656E2072656469B8
:100DB000726563746564206865726520776974681C
:100DC000207363616E662829210A0000FC0E000072
:100DD000000000100800000008010000040F0000DF
:100DE0000800001060020000240100001001000053
:100DF00043000000F8FFFFFF0040404040404040FB
:100E000040404141414141404040404040404040DD
:100E10004040404040404040400502020202020281
:100E200002020202020202020220202020202020D0
:100E300020202002020202020202909090909090E4
:100E400010101010101010101010101010101010A2
:100E50001010101002020202020288888888888816
:100E60000808080808080808080808080808080802
:100E7000080808080202020240000000000000000A
:100E80000000000000000000000000000000000062
:100E90000000000000000000000000000000000052
:100EA0000000000000000000000000000000000042
:100EB0000000000000000000000000000000000032
:100EC0000000000000000000000000000000000022
:100ED0000000000000000000000000000000000012
:100EE0000000000000000000000000000000000002
:100EF00000000000000000000000000000000000F2
:040F000000000000ED
:04000005000000CD2A
:00000001FF
